:1000000018430020A92000004FA900007D20000017
:100010007D2000007D2000007D2000000000000009
:10002000000000000000000000000000ED1C0000C7
:100030007D20000000000000951C00007D200000D5
:10004000711D0000711D0000711D0000711D000078
:10005000711D0000711D0000711D0000711D000068
:10006000711D0000711D0000711D0000711D000058
:10007000711D0000711D0000711D0000711D000048
:10008000711D0000711D0000711D0000711D000038
:10009000711D0000711D0000711D0000711D000028
:1000A000711D0000711D0000711D0000711D000018
:1000B000711D0000711D0000711D0000711D000008
:1000C000711D0000711D0000711D0000711D0000F8
:1000D000711D0000711D0000711D0000711D0000E8
:1000E000711D0000711D0000711D0000711D0000D8
:1000F000711D0000711D0000711D0000711D0000C8
:1001000053B94AB9002908BF00281CBF4FF0FF317E
:100110004FF0FF3000F00CB8ADF1080C6DE904CEE3
:1001200000F008F8DDF804E0DDE9022304B07047D0
:10013000704700BF2DE9F04786468C460846089E6A
:10014000154674461946002B40F0C2808542B2FA2B
:1001500082F245D94AB1C2F1200300FA02FC2EFA1C
:1001600003F3954043EA0C0C94404FEA154EA8B2B5
:10017000BCFBFEF8230C0EFB18CC08FB00F943EA8D
:100180000C43994528D9EB1808F1FF3704D299455B
:1001900002D9A8F102072B44A3EB0903A4B2B3FBD5
:1001A000FEFC0EFB1C330CFB00F044EA0344A042AF
:1001B00014D92C190CF1FF3304D2A04202D9ACF1AE
:1001C00002032C44241A43EA07401EB1D440002302
:1001D00034607360BDE8F0874746DDE76346F1E7CA
:1001E00092BB431B01214FEA154EAFB2B3FBFEFC9D
:1001F000200C0EFB1C330CFB07F840EA0343984528
:1002000062D9EB180CF1FF3004D2984502D9ACF159
:1002100002002B44A3EB0803A4B2B3FBFEFC0EFBCD
:100220001C330CFB07F744EA0344A7424ED92C19B0
:100230000CF1FF3304D2A74202D9ACF102032C44E3
:10024000E41B43EA0040C0E7C2F1200320FA03F1B7
:10025000954090402EFA03F303434FEA154EAFB298
:10026000B1FBFEFC0EFB1C10190C0CFB07F841EA5D
:100270000041884504FA02F422D969180CF1FF30D4
:1002800004D2884502D9ACF102002944A1EB08014F
:100290009BB2B1FBFEFC0EFB1C110CFB07F743EA03
:1002A00001439F420ED9EB180CF1FF3104D29F425B
:1002B00002D9ACF102012B44DB1B41EA004192E779
:1002C0006046E3E76146F7E76046A3E76346B7E7C2
:1002D000834206D916B9002108467BE7C6E900E04B
:1002E000F9E7B3FA83F78FB9834201D3724508D88F
:1002F000BEEB020460EB030301209C461EB9002103
:1003000068E73846FAE7C6E9004CF8E7C7F1200C81
:10031000BB4022FA0CF41C432EFA0CF120FA0CF329
:10032000B84001434FEA14490EFA07F5B3FBF9F858
:100330001FFA84FE09FB18300B0C08FB0EFA43EA87
:1003400000439A4502FA07F240D9E31808F1FF305A
:1003500004D29A4502D9A8F102002344A3EB0A0370
:1003600089B2B3FBF9F809FB183308FB0EFE41EA2A
:1003700003418E452CD9611808F1FF3304D28E4514
:1003800002D9A8F10203214443EA0040A0FB0298ED
:10039000A1EB0E014145CE46434602D306D14D4561
:1003A00004D2B9EB020E68EB04030138002EA6D08C
:1003B000B5EB0E0261EB030101FA0CFC22FA07F324
:1003C0004CEA0303F940C6E9003198E74046C5E727
:1003D0004346D9E7034613F8012B002AFBD1181A2C
:1003E0000138704708B54FF0FF324FF0FF33064831
:1003F00006F030F8054B06481A68013A1A60196889
:10040000BDE8084009F06CBDCC020020B00000201F
:1004100054BE000008B5074809F062FD0A24FFF742
:10042000E1FF01F0BFFFB0FBF4F303FB140009F0A0
:1004300045FDF4E786BE000008B5064B06481A687D
:1004400001321A60196809F04BFD0448BDE8084004
:1004500005F0DCBFB00000209FBE0000CC020020F1
:1004600008B5084809F03CFD0A24FFF7E5FF01F054
:1004700099FFB0FBF4F303FB140000F5FA7009F0E8
:100480001DFDF2E7D1BE000008B5002000F02AFDF6
:1004900010B902480AF084FD002008BD404B4C0012
:1004A000014B1B68184700BFB4000020014B1860C7
:1004B000704700BFB400002030B585B004460D463B
:1004C0001022002168460BF0C3F802238DF8023099
:1004D0002A46044B01932146684609F0A5FA05B067
:1004E00030BD00BFA104000080B505460E4617468A
:1004F000984606F025FC03460BF0EEF8DFF818905E
:10050000044649F80030424630463946A84754F878
:10051000090001F049FE00BF080000002DE9F04786
:10052000058B04462807904611D4022905F00705DB
:1005300040F0CD80204609F0C6FE78B10138218B0D
:10054000042811D8DFE800F0C3106D85950001295B
:100550000CBF45F0100545F02005258388F3118870
:10056000BFF36F8FBDE8F08701F0070AAA4500F0DE
:10057000A6800027B9463E46A368002B00F0BD8048
:1005800041F00801218388F31188BFF36F8FA168C0
:10059000002900F0BB800D68002900F0B780D1F879
:1005A0000480334652462046C047002D76D02B6843
:1005B00029461D46F0E701F007035A1F012A1BD800
:1005C000002221F00701062B276889B2C4E9002226
:1005D00009D13B4603E0628B013262831B68002B2A
:1005E000F9D141F002012183204609F06CFE002878
:1005F0007BD041F0200177E0042B0AD121F00701E4
:1006000089B22183204609F05EFE10B141F020013D
:100610002183218B01F0070AAA4550D00027B94653
:10062000AAE7236921F0070141F00601062DD3F85E
:10063000009021832DD1B9F1000F40D041F0080185
:10064000218388F31188BFF36F8F3A492046C8474A
:1006500029E021F00701236941F0040189B2042D4A
:10066000D3F804902183E6D000273E464FF0040AD9
:1006700082E721F00701236941F0050189B2052DC8
:10068000D3F808902183D6D000273E464FF0050AC4
:1006900072E700273E464FF0060A6DE72B4687E7D4
:1006A000B9F1000FD1D14FF02003EFF3118883F39C
:1006B0001288BFF36F8F238B23F008032383258BCE
:1006C000EA062ED525F01003238305F00705666999
:1006D000218B002EBFF66FAF00232768C4E90033DB
:1006E00021F0070141F001012183218B01F0070A6C
:1006F000AA454FF000097FF43FAF002F9BD041F097
:100700000801218388F31188BFF36F8F002FC7D0B2
:100710003D68394633465246204609F000FE2F46D2
:10072000F4E7AB067FF51AAF25F02003238305F02D
:100730000705FFE64BA3000008B504464FF0200272
:10074000EFF3118382F31288BFF36F8F03F03CFD48
:10075000204601F0D3FC034809F0C2FB01F0FEF98A
:10076000FCE700BF13BF000003F060BDF0B40C4B0A
:100770000C4E5F6A0C4BB34203D36FF08500F0BCA4
:1007800070475D68BD4209D31C693CB195F802C051
:100790000579AC4502D12346F0BC18472433EAE77B
:1007A000F8070020D8030020B40300202DE9F0470B
:1007B000134CDFF85080DFF8509005460E46174680
:1007C000444503D36FF08500BDE8F0876268D9F82F
:1007D00024309A4212D3A36983B190782979884250
:1007E00005D13A4631462846BDE8F04718475279C8
:1007F000012A03D13A463146284698472434DFE798
:10080000B4030020D8030020F80700202DE9F041B0
:100810000B4CDFF8308005460E461746444502D3A0
:100820006FF0850009E063690BB92434F6E73A46B6
:100830003146284698470028F7D1BDE8F08100BF2F
:10084000B4030020D803002010B504460AF0BAF81B
:1008500010F1780F00D050B9054A204609F0F6FE95
:10086000D2F8C43023EA0003C2F8C430002010BD1F
:10087000F8070020024B00221A605A60704700BF40
:10088000B308002070B50B4B0B4CA34201D30020E2
:1008900070BD196A1E7F00220439D5B2AE4201D85C
:1008A0002433F2E7013211F832508542F5D10120AC
:1008B000EEE700BFB4030020D803002008B50948C4
:1008C0000378C3F341130A3350F823303BB100F1EE
:1008D000080200F110019847C043C00F08BD184638
:1008E000FCE700BFF807002004282DE9F14FDFF8EE
:1008F000989004460F4616D001282DD1DFF88C8041
:1009000098F8B93043B300F005FE214D4D4520D293
:10091000D5F820B04FF0000A2B7F5FFA8AF6B34279
:1009200004D82435F2E7FFF7A5FFE7E70BEBC6068F
:100930000AF1010A30790AF045F80246307909F0E7
:1009400085FED8F8C430002A23EA0003C8F8C43072
:10095000E2DA002388F8B9300D4D4D4508D30B4B32
:100960001B6A6BB13946204601B0BDE8F04F18470D
:10097000EB681BB13A462146284698472435ECE7F8
:1009800001B0BDE8F08F00BFD8030020F8070020B9
:10099000B403002073B5C4B263060D468DF807405A
:1009A00007D02046FFF76EFF78B10D4B93F8BA00E1
:1009B00058B10B4E204655B102F0DEF8F3691BB179
:1009C0000DF1070108209847012002B070BD02F028
:1009D000FBF8F369002BF7D00DF107010920F2E7CE
:1009E000F807002073B586788DF8006003794279A6
:1009F0001C4C43EA0223ADF80230C378304603F0C2
:100A000003038DF8043009F021FED4F8C4301842F5
:100A100005460BD0304600F05FFD3046FFF714FF6F
:100A20000AF01CFB10B9962006F070F9684602F037
:100A30007FF810F1780F03D010B1002002B070BD24
:100A40009DF8000002F0FCF810F1780F01D00028AA
:100A5000F3D1D4F8C43001202B4384F8B900C4F892
:100A6000C430EBE7F80700202DE9F047A34EB36947
:100A700004460F461546FBB9237803F01F03012BEC
:100A800000F09D80022B00F0048133BB94F900003C
:100A90002A686178002834DA062912D008292BD078
:100AA000D9B901231370517096F8C3305B0043F03D
:100AB0000103137002232AE198470028DCD10020AB
:100AC0000DE06288100A011F0129844605D9072814
:100AD00003D8716AD2B20C781CB96FF01500BDE86A
:100AE000F0874E78664503D19A4200F00B810133BE
:100AF0002144F0E70B780AE196F8BA30137001232D
:100B000005E101390829E8D801A353F821F000BF15
:100B1000A90B0000DB0A0000B70B0000DB0A000095
:100B2000350B0000DB0A0000DB0A0000DB0A0000D6
:100B3000410B0000A07801F0E9FF0028BFD0CCE70E
:100B40006388756A63BBFFF795FE638886F8BA30E1
:100B5000F369002BB3D06A4903209847AFE76B785D
:100B6000042B10D0052B11D0022B04D16F79638890
:100B7000BB4208BF01202B781D442B78002BEED1FF
:100B80000028AAD0DFE795F80380F4E76388BB422A
:100B9000F1D1B8F1000FEED12846FFF723FFEAE7C5
:100BA000FF270020B846E8E76388012B95D1002392
:100BB00086F8C33083E76388012B8ED1F8E796F877
:100BC000BA30D5F800C0002B87D0756AA38894F896
:100BD00004E02A46107800283FF47FAF51780229BC
:100BE00004D192F80480F04500F293800244F1E7CA
:100BF0008CF800208CF80120396060E7154494E0FF
:100C00000B2A7FF46AAF00274FF0FF08C146BA46AF
:100C100006E06B78042B0FD0052B21D02B781D44D8
:100C20002B78002BF5D1F36913B151460720984773
:100C3000002F7FF444AF50E795F80280A38895F821
:100C400003909845EAD163889945E7D1B8F1070F39
:100C50001CD806EB0803AA4683F8BB900127DDE702
:100C6000A3884345DAD1A3784B450AD0AF783846FC
:100C700000F032FC3846FFF7E7FDB0FA80F77F0955
:100C8000CCE72846FFF7AEFE0746C7E7AA4600278F
:100C9000C4E794F900206378002A18DA002B7FF467
:100CA0001CAF24792D6863060AD02046FFF7EAFDC1
:100CB00000283FF412AF96F8BA30002B3FF40DAF86
:100CC0002946204601F0A0FF00236B70F2E6012BBD
:100CD00008D0032B7FF401AF6388002B7FF4FDAEB7
:100CE000012103E0618800297FF4F7AEA088FFF7B7
:100CF00051FE00287FF4E3AEEFE600BFF8070020C6
:100D0000B2080020022829607FF4F4AE4B883B60D3
:100D1000D5E694F9000062780028BFF671AF002A8A
:100D20003FF466AF0A2A7FF4D8AE2A78002A3FF44F
:100D3000D4AE697804297FF461AFA9788B427FF43F
:100D40005DAF072B96BF9B19002393F8BB308CF83F
:100D50000030D4E613B5164C237DF3B9E268A168E0
:100D6000019201AB802009F07FFC019AA368134433
:100D7000A360E3689B1AE3606BB962B12369E28800
:100D80009A4208DD94F8C82093FBF2F102FB11337C
:100D90000BB90123237502B010BD00231A46194672
:100DA0008020237502B0BDE8104001F073BF00BF82
:100DB000F807002030B585B0002302460D460193A8
:100DC000002858D1002935D108220B460DEB02012D
:100DD00009F011FE002804DA802001F0CDFE05B0F4
:100DE00030BD2A4C029A2260039A626004F13802F4
:100DF000A2609DF90820BDF80E302575002AC4E9CF
:100E000003550ADB802B04D9802001F0B5FE0020B9
:100E1000E3E713B1C4E90333E1E7FFF74FFD00282F
:100E2000DAD0E28823699A42D4BFE260E360FFF738
:100E300091FFD4E7154CD4E90215002D01AB04DC79
:100E400009F0D9FD0028CADAC6E72A4609F0D3FD21
:100E50000028D9DB019AA3681344A360E3689B1AB6
:100E6000E360002BBBD104F13803A360FFF726FD3C
:100E70000028DCD1B0E78028B1D1044BDA68002A21
:100E8000D5D11B7D002BD2D1A9E700BFF8070020E8
:100E9000054B064A9A62064ADA62064A1A63064A0D
:100EA00058629A6100207047F8070020690A000024
:100EB0006D0700000D080000AD07000010B5084BDD
:100EC00093F8B84034B900F0E3F830B1FFF7E0FF31
:100ED000204610BD6FF07700FBE74FF0FF30F8E7DA
:100EE000F80700202DE9F341414D04466F6A41485F
:100EF0004FF0FF324FF0FF3305F09EF995F8B860E0
:100F0000002E6ED13C482C62E86101F0DDFF01F05B
:100F1000CBFD041E49DB00F021FB041E45DB7B7882
:100F2000012B61D1FB79002B5ED0684685F8C83073
:100F3000ADF802308DF804608DF8006001F0F8FD26
:100F4000041E32DB802768468DF8007001F0F0FD4A
:100F5000041E2ADB2949304601F0A2FF041E24DBCF
:100F60002649384601F09CFF041E1EDB244CDFF8A6
:100F70009480444520D3002001F062FE041E14DB5F
:100F8000D5F8C430802043F00103C5F8C43001F027
:100F900057FE041E09DBD5F8C43043F48033C5F88E
:100FA000C430012385F8B8300024124805F0BEF99A
:100FB000204602B0BDE8F081276A0026227FF3B206
:100FC0009A4201D82434D4E707EBC30257F8331010
:100FD000107901F065FF01360028EFD04FF0FF34A3
:100FE000E3E76FF07704E0E76FF01504DDE700BF9B
:100FF000F8070020B8020020E9080000B50D000045
:10100000B4030020D803002030B51F4B8BB005AAD5
:1010100003F1100518685968144603C40833AB423D
:101020002246F7D11B7823701022002101A80AF074
:101030000FFB1222002115480AF00AFB102101A81B
:1010400009F0FBFD00281BDD0828B8BF082009387F
:1010500001AB0E491A18002012F8013F0AAC04EB4C
:10106000131403F00F0328336B44013014F8144CAD
:1010700013F8143C0C7008284B7001F10201EBD1FD
:1010800002480BB030BD00BF47BF0000B8250020AC
:101090002DE9F04F704C87B04FF0000B00264FF059
:1010A000011AB0463546B14623782BB96B4B023452
:1010B0009C42F3D1684833E06378052B1BD8DFE806
:1010C00003F09003C8901D3B402304A88DF810B096
:1010D000ADF812308DF814B009F05CFC40B1082373
:1010E00004A8ADF8123009F055FC08B1ADF812B003
:1010F000BDF81230E37123781C44D5E7E378002B68
:10110000F9D1A3787BB108F101085FFA88F8F2E71A
:101110006B689C4209D02435514B9D42F8D3002086
:1011200007B0BDE8F08F4F4DF6E7AB68002BEAD073
:10113000414620469847E6E7002DF0D000222B7F5D
:101140009A42ECD2296AA07801EBC2010B7998424D
:1011500001D00132F3E70127E07800F003008DF8B9
:101160001400207994F805C040EA0C20ADF8120074
:1011700094F902000028FBB228DA07F110004FF0C2
:10118000010C0CFA00F010EA0A0F26D143F080009F
:101190008DF8100004A8CDE90213019209F0FAFBC2
:1011A000DDE90121039BC0B99DF81020A27012F067
:1011B000800F18BF10330A7118BFDBB24FF0010265
:1011C00014BF9A40BA404AEA020A94E70120B840A4
:1011D00010EA0A0F01D11846DAE70137102FBBD108
:1011E000B7E7032E1DD1FFF70FFF074668B1FFF7E2
:1011F000F1F8102809D13846A31C07F1100250F865
:10120000041B43F8041B9042F9D123786FF00201CC
:10121000E218091B04EB5303D14213D50136F6B291
:1012200069E7002EF1D1B9F1000F3FF478AFA4EBDC
:10123000090389F80230C3F3072389F8033089F8DA
:101240000480EBE702F801BC13F8010902F8020D73
:10125000E2E7A1464FE700BFEC020020B303002005
:10126000D8030020B403002010B5094B00211A4612
:101270001C78844204D15C6814B102EB811010BD6B
:101280000131042903F14003F2D10020F7E700BF48
:10129000C40800202DE9F34150F8283C10F82C6CCC
:1012A0001033044610D1036950F8202C990739D522
:1012B000EAB913F0040304D11A461946304609F07E
:1012C000D3F9002344F8283C54F8283C10330BD0C1
:1012D00054E9077554F8148C09F0C0FE00284CD06E
:1012E0002C48214609F0B3FF02B0BDE8F08150F868
:1012F000241C01AB304609F0B7F910B16FF01503AB
:10130000E0E7019A54F8243C134444F8243C54F890
:10131000203C9B1A44F8203C54F81C3C134444F8ED
:101320001C3CD1E750F8241C01AB304601F02EFDE7
:101330000028E3D1019D54F8243C2B4444F8243C7C
:1013400054F8203C5B1B44F8203C54F81C3C2B44D4
:1013500044F81C3C002DB4D0304601F0BBFDB5FB79
:10136000F0F303FB1055002DABD154F8203C002BBB
:10137000A7D0304601F052FDA6E744F8180CA4F1BE
:10138000100005F043F8002DAED0424639463046F5
:10139000A847A9E7D80400204B1E012B73B50646C9
:1013A0000D460FD8FFF760FF044668B9012D09D13B
:1013B00001AB01220DF10301304601F0E7FC019B76
:1013C000002BF5D102B070BD09F048FE04F12C01EC
:1013D00008B1012D05D1084602B0BDE87040FFF705
:1013E00059BF034802B0BDE8704009F030BF00BFEC
:1013F000D80400202DE9F74F06460191154698467E
:1014000009F07AF9044600285CD14FF02003EFF38D
:10141000118A83F31288BFF36F8FDFF8B0B0002218
:101420000023584605F016F870B9DFF8A490A7011C
:1014300009EB8414636813F1100F14D1019358461B
:1014400004F0E4FF019B06E00134042C0BF1400B97
:10145000E5D16FF00B038AF31188BFF36F8F184645
:1014600003B0BDE8F08F019B2061C4E902350C9BFD
:1014700063610D9BA36130466FF00F0309F80760AD
:10148000C4F83C80636001F025FD58B1304601F09E
:1014900021FDB5FBF0F303FB10551DB1E36B43F0E9
:1014A0000403E36318F0020F07D007F12C01094889
:1014B000494409F0CCFE0023CDE7304601F0AEFCF4
:1014C0000346C8E76FF00F03C9E700BFE00800203C
:1014D000C4080020D804002010B54FF02003EFF31B
:1014E000118483F31288BFF36F8FFFF7BDFE50B1F5
:1014F0004368103307D16FF08B03436000F12C0178
:10150000034809F0A4FE84F31188BFF36F8F10BD68
:10151000D804002070B50F4C04254FF02003EFF3E2
:10152000118683F31288BFF36F8F6368103307D17E
:101530006FF08B030848636004F12C0109F087FE0B
:1015400086F31188BFF36F8F013D04F14004E4D1AD
:1015500070BD00BFC4080020D804002070B50A4C3C
:101560000A4E00253146204609F054FE0122A4F11E
:1015700010001146013509F010FE042D04F140045D
:10158000F0D1002070BD00BFF008002095120000CF
:1015900008B50146034809F099F810B1012300F895
:1015A000073C08BDC40900200169012381F84B30C4
:1015B0000B6833B191F849301BB10248083109F08A
:1015C00046BE7047D80400200169012381F84A30E3
:1015D0000B6833B191F848301BB10248083109F06B
:1015E00036BE7047D804002038B5056995F89E00CE
:1015F00088B195F89F307BB985F84830D5F89000D0
:1016000008F0AFFF002204460023044805F118014A
:1016100005F076F8204638BD0020FCE7D80400200D
:1016200013B504698DF8071094F89E30A3B194F8AF
:101630009F308BB90DF10701D4F8900084F8483041
:10164000012208F08EFF014640B10D4821220023FF
:1016500004F1180105F054F802B010BDD4F8900060
:10166000012208F0D2FF0028F6D0D4F89000012221
:101670000DF1070108F075FF0028E6D1ECE700BF87
:10168000D8040020F0B5D0F88C305B681B6A1F7D51
:1016900085B00546384609F02FF80646E0B9A86F30
:1016A0004FF4806203A908F07BFF0446A0B18306D3
:1016B000A5F1180308BF00F1FF3485F830600193ED
:1016C000064B03990093224602233846FFF792FE09
:1016D000A86F214608F084FF05B0F0BD8117000017
:1016E00070B504460E4601791548154608F0E0FF2E
:1016F00010B394F900206378002A16DB202B04D065
:10170000222B0ED06FF085000AE02B681A6840F893
:10171000102C9A8820F80C2C9B7900F80A3C0020A9
:1017200070BD638800F8093CF9E7212BEAD1103835
:10173000072328603360F2E76FF01200F0E700BF84
:10174000C40900200D4A03460021A0F84810106883
:10175000C3F8940090889279A3F8980083F89A20AF
:1017600083F89C1083F89B10A3F89E1083F8A010B8
:10177000402203F14C0009F06BBF00BF60BA0000CB
:1017800010B5012382F84830136814463BB192F833
:101790004A3023B10A4802F1080109F058FDD4F893
:1017A00090309A681B699A4208D004F118010448E5
:1017B000BDE810400022002304F0A2BF10BD00BF0E
:1017C000D804002010B504690023C4F8A8300C4BDD
:1017D000C4F8A400596804F1A80269B9C3E9002259
:1017E00004F10800074909F015FD04F11800064945
:1017F00009F03EFD002010BD0A605A60F0E700BF0E
:10180000C409002023A700008516000030B54FF45E
:101810000033426805690D4C85B042F2A100CDE964
:101820000103002385F89D30106AADF80C10007993
:101830000A2201A908F018FF95F89D3023B901206C
:1018400009F0AEFB013CF7D105B030BDA186010027
:1018500073B5144602F14C060A1E05461FDDD4F886
:101860008C00314608F07DFE012384F8493023685E
:101870003BB194F84B3023B10E4804F1080109F054
:10188000E6FCD4F88C104B684A699A1ACB699B1A0B
:101890003F2B04D8012384F8A03002B070BD064B62
:1018A000009301940123402231462846FFF7A2FD10
:1018B000F3E700BFD80400205118000038B50D46EA
:1018C00001461E4808F0E8FE044680B30246691E41
:1018D00052F8A4395B68052929D8DFE801F02028EF
:1018E0000320252914F8061C31B91B6A187BFFF761
:1018F000AFFF012304F8063C14F85C3CBBB901239C
:1019000004F85C3C54F8A43C8BB114F85A3C73B115
:10191000A4F19C010A48BDE8384009F098BCBDE834
:1019200038401046FFF70EBF012304F8053C38BDD0
:1019300014F8053C002BFAD00023F6E7C409002078
:10194000D804002037B5094D0949002400944FF010
:10195000FF334FF48062284604F09AFE054928467A
:1019600009F082FB204603B030BD00BFD804002040
:10197000D82900208EBF0000014805F053BC00BFED
:10198000CCBA000038B5044618B90F4B0F485B6855
:1019900098476168B1F5683F10D0B1F5680F0DD078
:1019A0000B4DA9420AD011F46861206807D00146A6
:1019B000084809F02DFB00232360656038BD142220
:1019C00009F046FEF9E700BFCC01002097BF0000F8
:1019D0002C5F5CA9CC0E002008B520B34368B3F59A
:1019E000683F10D101220368BFF35B8F53E8001FEB
:1019F000002903D143E800200028F7D1BFF35B8F13
:101A00000DD1002008BD094A93420AD000684FF06A
:101A1000FF324FF0FF3304F00FFC0028F1D00448F0
:101A2000F0E70448EEE76FF4E040EBE72C5F5CA9D9
:101A3000E98FFFFFEA8FFFFF08B5D8B14368B3F520
:101A4000683F10D100220368BFF35B8F53E8001F8B
:101A5000012903D143E800200028F7D1BFF35B8FB1
:101A60000BD1002008BD074A934208D0006804F05B
:101A70005DFCF6E76FF4E040F4E70348F2E7034863
:101A8000F0E700BF2C5F5CA9E98FFFFFEA8FFFFF43
:101A900010B5044618B91D4B1D485B68984763682C
:101AA000B3F5683F2FD0B3F5680F2CD0194A934295
:101AB00019D1236803BB18484FF0FF324FF0FF33B2
:101AC000214604F0C5FA08B923681BB90F4B134827
:101AD0005B68984720681422002109F0B9FD4FF493
:101AE0006863636008E0B3F5683F0DD83A2B03D014
:101AF00040F6BA629342DED1206809F0CEFA6368FC
:101B000043F03A03636010BD054AF3E7CC010020BF
:101B100097BF00002C5F5CA9CC0E0020BDBF000069
:101B20003A00003A08B5064906484023142209F055
:101B300061FABDE808400449044805F037BC00BF1D
:101B4000CC090020CC0E0020D4BA0000E8BA000076
:101B5000014910220A60704710ED00E072B6404063
:101B600080F31188BFF36F8FBFF34F8F30BF62B622
:101B7000BFF36F8F704700BF72B6494081F3118881
:101B8000BFF34F8F20BF80F3118862B6704700BF4C
:101B900040B2002807DB044A4109012300F01F007E
:101BA000834042F82130704700E100E040B2002855
:101BB0000CDB4309064900F01F002033012282405C
:101BC00041F82320BFF34F8FBFF36F8F704700BFE3
:101BD00000E100E0054B420900F01F0053F822200D
:101BE000012303FA00F01040704700BF00E100E05D
:101BF00040B20028A8BF00F1604001F10101B8BF68
:101C0000064B4FEA4111ACBF00F5614000F00F00F8
:101C1000C9B2B4BF195480F80013704714ED00E046
:101C200030BFFFF7FDBF00BF0B4A08B50B4B22F0DA
:101C30007F029A60BFF34F8FBFF36F8FD3F8882076
:101C400022F47002C3F8882004F034F905F0F0F8AB
:101C500000F01EFA04F07CF90000000000ED00E046
:101C6000094A0A49936809689967094958674B689E
:101C700043F080534B60002383F31188BFF36F8FD1
:101C80009368986F704700BFB81A00208CBC0000A2
:101C900000ED00E012498A684FF030001044EFF385
:101CA000098C80E8F01F202080F31288BFF36F8F2B
:101CB0000C4F4FF000664A698A603E604FF0700436
:101CC00014192068084C2060506F0023536780F37C
:101CD000118802F1300090E8F01F8CF309887047FA
:101CE000B81A002004ED00E0E80E00201EF0040FFA
:101CF0000CBFEFF30880EFF30980816911F8021C33
:101D00000229FFD001B508F01AFE01BD42F8203CBF
:101D1000009B42F81C3C0A49019B42F8183C029B7C
:101D200042F8143C21F001014FF0807342F8043C6A
:101D300042F8081C0023203A02654367704700BF41
:101D4000E9040000084B9860084B006F18601046CB
:101D500081F30988002163B681F31188BFF36F8F87
:101D600000220023FEF7C0FBB81A0020E80E002076
:101D700001B5EFF30580A0F110004FEAC00004495F
:101D8000014409C99847BDE80140024908470000DD
:101D900010B80000F51D0000114B124A2DE9F0416A
:101DA000D518DFF84480013DB5FBF3F55D430F4BDB
:101DB00008EB0304013CB4FBF3F403FB04540E1BD7
:101DC00007460B49304609F01BFC701942460021BA
:101DD000083E09F03DFC3E6704F10800BDE8F081D3
:101DE00001000000000000000400000004000000EA
:101DF00058BA0000044B99685869884203D00349D7
:101E00004FF080520A607047B81A002004ED00E0DD
:101E1000134B9A6A12F0007F9A6A14BF1E201D208D
:101E200012F0807F9A6A18BF1F2012F4002F9A6A5E
:101E300018BF212012F4802F9A6A18BF222012F4B2
:101E4000003F9A6A18BF232012F4803F9A6A6FEA13
:101E500002426FEA12429A6218BF2420704700BF04
:101E600000ED00E010B5194B0246986A9C6A10F428
:101E7000805F14BF1720162014F4006F9C6A18BFEF
:101E80001820A40509D5986B986A000404D51AB1E6
:101E90009A6A22F400429A6219200C4B9A6A12F450
:101EA000806F9A6A18BF1A20D2050CD49B6A13F46B
:101EB000005F18BF1C20054A936A43F47F43936276
:101EC00000230B7010BD1B20F5E700BF00ED00E004
:101ED00010B51C4B0246986A9C6A10F0100F14BF94
:101EE0001120102014F0080F9C6A18BF1220A407BC
:101EF00009D5586B986A000604D51AB19A6A22F07F
:101F000080029A6213200F4B9A6A12F0010F9A6AAC
:101F100018BF142012F0200F9A6A18BF1520D4069B
:101F200058BF9B6A074B9A6A920642BF5A6A22F4CC
:101F300000525A629A6A42F0FF029A6200230B70C2
:101F400010BD00BF00ED00E0F0B5474B5B688BB003
:101F50000446C3F30803002585F31188BFF36F8F90
:101F600002F07F40B0F17F4F11D102F00C00082841
:101F70000DD010074CBF0C4601250022033B8DF805
:101F80000720032B05D8DFE803F02462665F2C46A8
:101F9000F3E700239DF80720CAB902AE04F1200739
:101FA00020686168324603C20834BC421646F7D145
:101FB000099A002D53D0C2F3080121B96FEA5222C9
:101FC0006FEA4222099202A9184608F0B6FC0BB04B
:101FD000F0BD254BDA6A9107DBD4DA6A002AD8DB38
:101FE000DA6A5200D5D55A69A16942F480725A6101
:101FF000BFF34F8FBFF36F8F5A6931F8021C22F481
:1020000080725A61BFF34F8FBFF36F8F4DF602722C
:10201000914209D09A6AD2B242B10DF10701012072
:10202000FFF756FF0346B5E72368B3E79A6A12F451
:102030007F4F05D00DF107010120FFF713FFF1E7F6
:102040009B6AB3F5803FA4D3FFF7E2FEEAE70DF108
:1020500007010020E4E70DF107010020EDE722F47D
:10206000FF7222F00102ADE700ED00E0024A536981
:1020700043F010035361704700ED00E0EFF3088078
:10208000EFF3098101B57246FFF75EFF01BD00BFA6
:10209000044800232021C2180133302B82F800139A
:1020A000F9D1704700E100E0002080F31488BFF30D
:1020B0006F8FFEF759FB00200D490860BFF34F8F6B
:1020C0000C4880F3088800F03DF8202080F3118848
:1020D00009484FF40061401880F30988EFF3148039
:1020E0000221084380F31488BFF36F8FFFF79CFD34
:1020F00094ED00E018430020D8310020BFF34F8F4B
:102100000549064BCA6802F4E0621343CB60BFF393
:102110004F8F00BFFDE700BF00ED00E00400FA05AF
:102120000749D1F890200023C2F3072218469342B2
:1021300000DB7047C1F89830C1F8A0000133F6E722
:1021400000ED00E008B572B6002383F31388FFF7B3
:10215000E7FF144B4FF0FF32C3F88020C3F8842010
:10216000C3F88820C3F88C20C3F89020C3F89420CB
:10217000C3F89820C3F89C20C3F88021C3F88421B9
:10218000C3F88821C3F88C21C3F89021C3F89421A7
:10219000C3F89821C3F89C2162B6BFF34F8FBFF3F9
:1021A0006F8F08BD00E100E0084B9B6883420BD1B4
:1021B000EFF3058343B1064B5A6842F080525A60F0
:1021C0005A6A22F400425A6204F0C0BDB81A0020D4
:1021D00000ED00E0024B034A0348012100F060B823
:1021E0000000042000000020F8BA0000F0B5204EE6
:1021F00000258D4239DA446874B353B104F1FF3CD1
:1022000014EA0C0F2FD11F2C2DD907681CEA070FD9
:1022100029D1202C0768D0F808C05FFA82FE1ED9A9
:10222000B4F1004F1DD8013CB4FA84F4C4F11F048A
:102230006400BEF1070F4CEA040C14D827F01F0409
:10224000144344F01004C6F89820C6F89C404CF0A3
:102250000104C6F8A040013201350C30C9E708245A
:10226000E7E73E24E5E76FF015021046F0BD00BF3A
:1022700000ED00E0044B0522C3F89420BFF34F8F1C
:10228000BFF36F8F704700BF00ED00E0BFF35F8FBB
:10229000024B0022C3F89420704700BF00ED00E01D
:1022A00010B5034C01232278FFF7A0FF207010BD6A
:1022B000CA25002014490868082810B521D8FFF75E
:1022C000E5FF124C49680022904201F10C0105D152
:1022D0000F4B1870FFF7CEFF002010BDC4F89820F8
:1022E00051F80C3C23F01F03134343F01003C4F8D0
:1022F0009C3051F8043C43F00103C4F8A030013293
:10230000E2E74FF0FF30E8E704BB000000ED00E03B
:10231000CA25002008B5024B1B689847002008BD5D
:10232000EC0E0020034B044A1860937843F002033C
:1023300093707047EC0E00203001002008B504486F
:1023400007F0CEFD404080F311884FF0020002DF1D
:10235000EEBF000008B50649064821F00701C1F1AB
:10236000005202F5802207F056FF002008BD00BF92
:10237000AB51002018470020044A0123C2F8403521
:102380004FF080420020C2F87835704700E00140ED
:1023900020B1034B800143F001031847704700BF91
:1023A00070BA000007B50848836804221B680DEB6B
:1023B00002019847002802DA08F07CFC019001989D
:1023C00003B05DF804FB00BFD4B70000020600F0C4
:1023D0007F0312D5082B05D1010700F00F0306D5A6
:1023E0000E48704710F0780F12D100F00F034C2008
:1023F00000EB43100A4B18447047082B05D1020725
:1024000000F00F0306D50748704710F0780FF6D09C
:1024100000207047044800EB431070473C10002038
:10242000F00E00205C1100205C10002001490248E1
:1024300008F00DBF180F0020780500200146014864
:1024400008F0A0BEDC02002002480022002303F0B6
:10245000A9BF00BFDC02002013B5124803F020F82A
:10246000114B98421AD1114802F08CFC00241048FC
:1024700002F0CEFC0F49104800944FF0FF334FF4A8
:10248000806204F005F90D490B4808F0EDFD0C4899
:102490000C4908F0BFFE204602B010BD6FF00400EA
:1024A000FAE700BFAD2600000000AD0B2DC0000014
:1024B00024BB0000D82D0020780500201FC000009C
:1024C000180F0020C927000010B50E49BFF35B8F1D
:1024D000002351E8002F012A03D141E800300028F1
:1024E000F7D1BFF35B8F0CD151F8044C143920465F
:1024F00007F0C9FF783004D12046BDE8104007F04E
:102500009DBF10BD100F002038B5002464F07F007F
:10251000C0B2FFF75BFF013408F025FA082CF5D1B3
:102520000E4D0024E0B2FFF751FF036903B90561C6
:10253000013408F018FA082C05F14005F2D10848DA
:1025400008F011FA074BD3F87C2212B9064AC3F8F7
:102550007C22064808F007FA002038BD80150020CC
:102560003C100020F00E0020801100205C110020A3
:1025700010B5054CFFF768FF20B14168204608F010
:1025800047FDF7E710BD00BF4C02002007B5002350
:102590000E48002201A903F05BFD90B1FFF7E8FFB0
:1025A0000A480022002301A903F052FD38B901981E
:1025B000042340600374FFF741FFFFF737FF00205B
:1025C00001E00198406003B05DF804FB4C0200207C
:1025D000022810B511D8094B1C5CFFF7D7FF60B17A
:1025E000002202740472FFF729FF054B93F8243090
:1025F0001BB1BDE81040FFF719BF10BD2AC0000095
:10260000F00E0020F8B5877806463846FFF7DEFE64
:102610003B06F578044612D5002D43D1FFF7B6FFEF
:10262000034600283ED00122A577027403220273DC
:102630009C60FFF703FFBDE8F840FFF7F7BE4DB120
:10264000012D2FD1FFF7A2FF034658B3657705741C
:102650000573EDE7FFF79AFF20B3B278124B12F043
:10266000800F02F0080111D041B1D3F8A836E36021
:1026700001230374022303738460DAE702F00F027C
:10268000142101FB0233D3F80836F0E711B1D3F877
:10269000A837ECE702F00F02142101FB0233D3F854
:1026A0000837E4E7F8BD00BF00700240F0B5064609
:1026B00089B01422002103A808F0CAFF3378013B37
:1026C000052B21D8DFE803F07A0314146A160323DC
:1026D0008DF814300024FFF759FF0346A0B10474AD
:1026E00000F10802DDE9050182E8030018461DE05B
:1026F0000423EDE7B7783846FFF768FE837A04468F
:1027000023B1013B022B43D909B0F0BD3B06F5785C
:1027100013D5002DF8D1FFF739FF03460028F3D079
:102720000122A5770274032202739C60FFF786FEE4
:1027300009B0BDE8F040FFF779BE55B1012DE3D1F6
:10274000FFF724FF03460028DED065770574057384
:10275000EBE7FFF71BFF07460028D5D001230374E2
:1027600002230373846004F10C01B07808F0EAFBE3
:10277000134AE168B2F88C328B4206D95B1AA2F890
:102780008C3203F0E1F83846D0E7A2F88C52FAE731
:10279000304609B0BDE8F040FFF734BF01A803F0B0
:1027A000B1F89DF80530052B04D19DF8043013F0E5
:1027B000600FA9D0034B059301248CE702248AE71C
:1027C000F00E00205C1000202DE9F043A64CDFF84D
:1027D0009C9285B08046FFF737FE074610B905B0DA
:1027E000BDE8F08394F825303A7C3BB9002A00F02C
:1027F000868079689D4808F00BFCECE7042A42D8F3
:10280000DFE812F07D0005000001160140013B7B6E
:10281000BD68032B37D8DFE803F0023D5A5F6E69CD
:10282000934B002232607260D3F880143170D3F879
:1028300084147170D3F88814D3F88C0441EA002111
:102840007180D3F89014D3F8940441EA0021B18048
:10285000D3F89814D3F89C3441EA0323F380082377
:10286000EB6030687168834B03C311462B68687A4C
:10287000984796F90030002B08DBF38833B1A4F8B1
:102880008C3203F061F879684846B4E70023A4F875
:102890008C32F8E76B7F002BF5D02B7F002BF2D02A
:1028A00000266E774FF0FF3273482E774FF0FF33DC
:1028B00008F06CF86B6901936B68CDE9023601A9E9
:1028C000687A02F02FFE6C4808F062F8DBE72B68AC
:1028D0000121687A9847D6E7AB7A6BB9EB7F5BB991
:1028E00065484FF0FF324FF0FF3308F04FF803F028
:1028F0005BF8614808F04CF82B680221E9E73A7A66
:10290000042AC0D8DFE802F059032367730002F0FD
:1029100091FD05460028B6D102F0C2FCBFF35B8FE3
:102920005649012351E8002F002A03D141E8003025
:102930000028F7D1BFF35B8FA5D141F8085C41F8BF
:10294000105CE0696361143907F020FD9BE7002506
:1029500065F07F00C0B2FFF739FD037A13B1407A0A
:1029600003F0EAF90135082DF2D194F854311BB186
:1029700094F8550103F0E0F90025E8B2FFF726FDD1
:10298000037A13B1407A03F0D7F90135082DF4D159
:1029900094F874321BB194F8750203F0CDF900205D
:1029A00002F02AFD012384F825302368002B3FF430
:1029B0006AAF00210220984765E7002584F825507A
:1029C00003F05EF9FFF780FD2368002B3FF45BAF57
:1029D00029460420EFE7002B3FF455AF02F034FD09
:1029E0002368002B3FF44FAF00210520E3E7226866
:1029F000002A3FF448AF002B3FF445AF00210620EA
:102A0000904740E708F110054FF0FF334FF0FF32D9
:102A1000284607F0BBFFFFF777FD284607F0B8FF11
:102A200058F8283C002B3FF42EAF00210120C2E7CC
:102A300094F874327BB1012584F8895284F8885265
:102A4000FFF7A4FD38B10E4A057405738260FFF7E5
:102A5000F5FCFFF7EBFC58F8283C002B3FF413AFD4
:102A600000210A20A7E700BFF00E00204C02002042
:102A700000700240F40E0020280F0020100F0020EC
:102A80005C11002008F0D5F903F0FAF802F0FEFB23
:102A9000FFF76EFDFFF738FD08F0C4F9014802F0BA
:102AA000FFFCF0E6AD26000038B5164D95F8244041
:102AB0002CBB05F1380008F0F0FA204600F010FBBE
:102AC00022460121E8612720FFF792F808F0AAF9D1
:102AD000FFF71AFD044610B9012385F824300A4B8C
:102AE0001B680BB1FFF7A2FC4FF08043D3F83834DA
:102AF000DB0702D50020FFF76BFD204638BD002420
:102B0000FBE700BFF00E0020DC020020074B93F82B
:102B100024203AB193F82530002B14BF00206FF029
:102B2000120070476FF01200704700BFF00E0020D7
:102B300038B5104B93F824300446C3B105782846C5
:102B4000FFF744FC10B96FF0150038BD45722379CA
:102B50008372638843602078618810F0080F02D187
:102B60004B1E0B42EFD108F0E8F90020EDE76FF0C3
:102B70001200EAE7F00E002038B5124B93F824203B
:102B80000546CAB193F82530B3B1FFF71FFC0446E0
:102B9000A8B1837A012B12D007D9023B012B07D9A8
:102BA0006369A3610020E06038BD02F005FFF7E72C
:102BB000284602F079FEF3E76FF01200F4E76FF0B9
:102BC0001500F1E7F00E002038B50E4B93F82420E5
:102BD000054682B193F825306BB1FFF7F7FB68B17A
:102BE00015F008040AD1284602F080FE284603F0BA
:102BF000F7F8204638BD6FF01200FBE76FF01500C4
:102C0000F8E700BFF00E002038B50C4B93F82420F5
:102C100005460C4662B193F825304BB1FFF7D6FB61
:102C200048B144B1284602F047FE2070002038BD6C
:102C30006FF01200FBE76FF01500F8E7F00E0020D0
:102C400070B5134E96F824300446C3B1FFF7BEFBAF
:102C50000546B8B1230705D4204602F047FE2046BA
:102C600003F0BEF82B7A83B901232B7296F8253036
:102C70000BB9002070BD204603F05EF8F9E76FF055
:102C80001200F7E76FF01500F4E76FF07700F1E757
:102C9000F00E00202DE9F043DFF8E4801E4698F89E
:102CA000243085B0074689461546002B61D098F838
:102CB0002530002B5DD003065ED5FFF787FB044669
:102CC000002859D0037A002B56D04FF0FF334FF035
:102CD000FF3208F1380007F059FEA37F4BB108F12D
:102CE000380007F055FE6FF00A04204605B0BDE835
:102CF000F083A37AC5B13BB30123A3774FF000085B
:102D000001A93846CDE90195CDF80C8002F00AFC06
:102D10001C4B984229D084F81E801EBB6FF004041F
:102D2000194807F035FEE0E7E27F02B1E577002BB6
:102D3000E2D102F049FEB842DED002F035FE124880
:102D400007F026FE0024D0E7B8F80A30AB42F0D9ED
:102D50006268B5FBF2F302FB1353002BE9D10123A8
:102D6000E377E6E7C6F80080D8E706B135600024CF
:102D7000D6E76FF01204B8E76FF01504B5E700BFAF
:102D8000F00E00200000AD0B280F00202DE9F041CF
:102D90001D46204B174693F824200E46002A33D0B8
:102DA00093F8253083B3030631D401B97FBBFFF715
:102DB0000DFB044658B3037A4BB34FF0FF3316486C
:102DC0004FF0FF3207F0E2FDE3689F42B84628BFAC
:102DD000984646B93FB905B12B600F4807F0D8FDBA
:102DE0000020BDE8F081A1694246304608F008FCA9
:102DF000A3694344A361E368A3EB0803E360002DE8
:102E0000EBD0C5F80080E8E76FF01200E9E76FF05B
:102E10001500E6E7F00E0020280F002070B51E4DCB
:102E200095F82420034682B395F825206AB31B0643
:102E30002ED4FFF7CBFA044650B3037A43B34FF0D6
:102E4000FF334FF0FF3205F1380007F09FFDE368D4
:102E5000B3B9012663692677A361637F83B1FFF766
:102E600095FB30B905F1380007F092FD6FF00B00CB
:102E700070BD067484600673FFF7E0FAFFF7D6FAB8
:102E8000064807F085FD0020F2E76FF01200EFE73B
:102E90006FF01500ECE700BFF00E0020280F0020B7
:102EA00010B5084B93F824300C462BB1FFF78EFA7F
:102EB00028B10460002010BD6FF01200FBE76FF036
:102EC0001500F8E7F00E0020014B1860704700BFB6
:102ED000F00E002008B5074B93F8243023B1FFF71C
:102EE00075FA20B1406808BD6FF01200FBE76FF083
:102EF0001500F8E7F00E0020084B70B5C31A0D4618
:102F000007499B10044659430648402207F09EFD9E
:102F10002B4601462046BDE8704018479417002014
:102F2000B76DDBB684B7000073B50C4C0C4A402378
:102F3000041B00930D460B460A49A4106143064644
:102F4000094807F0B0FD011E05DA30462B4602B0F5
:102F5000BDE87040184702B070BD00BF9417002054
:102F600013AB0000B76DDBB684B70000002270B56C
:102F7000012104461046FEF73BFE0F4801F0DAFA45
:102F80000E4B984215D101F0E5FA26690C493046FE
:102F900007F0E9F900280BDB0125356424690849AD
:102FA00004F11C0007F0DFF9002801DBE5640020D4
:102FB00070BD6FF00400FBE7F92F00000000AD0BBF
:102FC00028BB000070B501460C2309484B43C418C8
:102FD000D4E90E56403300221844A26307F023FDC3
:102FE0002DB132462B460348BDE87040184770BDEE
:102FF0009417002084B7000010B1012804D0704756
:10300000034B1B6C5B0701D1FFF7DCBF704700BFB0
:103010009417002008B54FF02003EFF3118183F3DC
:103020001288BFF36F8F124A136843F002001060DA
:10303000DA0708D481F31188BFF36F8F0120BDE850
:10304000084007F04DBE4FF08043D3F80C24D3F86E
:103050000C34DB07EED5074807F0E5FC81F3118857
:10306000BFF36F8F0020BDE80840FFF7ABBF00BF84
:10307000E4170020D41700201FB500220123CDE95A
:103080000223094ACDF800D06B46CDF804D007F0F2
:1030900039FD002805DB4FF480420023684603F029
:1030A000D9F905B05DF804FB31AB000010B54FF065
:1030B0002003EFF3118483F31288BFF36F8F074A65
:1030C000136823F00201DB07116002D4012007F02E
:1030D00043FE84F31188BFF36F8F10BDE417002007
:1030E000024AC3B21C2003FB002070479417002043
:1030F0002DE9F0413849BFF35B8F0746012251E8C3
:10310000003F41E800200028F9D1BFF35B8F33B9BD
:10311000324933484B60CB608A6007F037F97B1E39
:10312000012B2BD8012F07D14FF08043D3F81C344B
:1031300003F00303012B21D007F090FF0546F8B9F7
:10314000284B1B78E3B14FF080430222C3F80823D9
:103150000646DFF894804FF08044D4F81824D4F861
:103160001834D20316D503F00303012B01D0012F2D
:1031700010D15DB386F31188BFF36F8FBDE8F08186
:103180004FF02003EFF3118683F31288BFF36F8FA4
:103190000125DEE7ADB13046FEF7EEFCD4F8183578
:1031A000002BDAD1D4F80421002AD6D0C4F8043197
:1031B000D4F804310123C4F81835C8F88031A3606D
:1031C000CBE70021212003F087FDE7E74FF08043A4
:1031D0000222C3F80423D1E79017002080170020B3
:1031E000B0170020D425002000E100E008B5074812
:1031F00007F0DBFE38B10648FFF794F80448FDF706
:1032000055F9002008BD6FF01200FBE7E8B7000099
:10321000153200000A2838B5074D044604D1AB68C2
:103220000D215B6828469847AB6803485B68E1B2AC
:103230009847204638BD00BFE8B700004FF0200394
:10324000EFF3118283F31288BFF36F8F094BD3F82A
:10325000001161B10021D3F80805C3F80011D3F8BB
:103260000031C0B282F31188BFF36F8F70476FF0E7
:103270000A00F7E700D00040F0B5034610469C78FE
:1032800093F803C04FF02005EFF3118285F3128805
:10329000BFF36F8F1F7893F801E0E41B04EA0C047E
:1032A000A04288BFA0B23E180CEA06063D461E703A
:1032B00082F31188BFF36F8F0A188A4217D17745BE
:1032C0000DD14FF02001EFF3118281F31288BFF38B
:1032D0006F8F1978597082F31188BFF36F8F1B7944
:1032E000241AA34222BF064B01221A60F0BD5E19C8
:1032F0000135767901F8016B05EA0C05DDE700BFC1
:1033000000D00040DB432DE9F04713F001050E46E5
:10331000144604D02348FFF7AFFFBDE8F087A2B3FF
:103320004FF02003EFF3118883F31288BFF36F8F00
:103330000D20FEF74FFC07460D20FEF737FC88F303
:103340001188BFF36F8FDFF860A0DFF86080CAF8E4
:103350000051DAF800314FF400590123CAF8003067
:103360002546C8F88091DAF8003183B1FFF766FF8F
:10337000031EC8F88091F6DB013DADB27355002DF8
:10338000F1D117B10D20FEF703FC2046C5E74FF041
:103390002003EFF3118083F31288BFF36F8FFEF7E2
:1033A000EBFBE0E70818002000D0004000E100E05F
:1033B0002DE9F041124F0D46144607F1350814B9B6
:1033C0002046BDE8F0814FF0FF334FF0FF32384622
:1033D00003F040F8224629464046FFF74DFF0646D7
:1033E000384603F013F83EB94FF0FF324FF0FF3389
:1033F000044803F02FF8E6E7A41BA4B23544DEE747
:10340000E8170020F817002038B5184C01221146A3
:10341000204607F0C2FE0122002104F1100007F04F
:10342000BCFE40F2074323874FF0706323620C23F6
:1034300084F8243000250E4B84F83550E586D3F807
:10344000042522F00102C3F804250121C3F800512C
:10345000D3F80021C3F804132A4619600D20FEF7A3
:10346000C7FB0D20FEF794FB284638BDE817002067
:1034700000D0004010B5FFF7E1FE002820DB174B1D
:1034800093F8222093F8214093F82310141B31EA7B
:103490000404C0B20DD193F8372093F8364093F866
:1034A0003810141B31EA04040BD10D4B01225A6071
:1034B0000EE09C180132114084F8250083F8221098
:1034C00010BD9C180132114084F83A0083F837107F
:1034D0000448BDE8104002F099BF00BFE817002083
:1034E00000D00040F817002030B54068057B01F09F
:1034F0001F04B2F5001F85B044EA451405D12046EB
:1035000001F006FB002005B030BD0025B2F5800FAC
:10351000CDE9025514D1B3F1007F0CBF042305237C
:103520008DF808300023194602AA204601F00CF954
:10353000234B98423DD10121204601F09BFAE1E75F
:10354000B3F1C06F27D0B3F1007F14BF0123022372
:103550008DF80830836823FA01F111F00101E1D1FF
:10356000B2F1A07FDED104F01F03620903F5E0731E
:1035700013D0012A20D1134A52F82330DB07D1D4CB
:103580000DF107052946204601F01EFA0E4B984220
:1035900006D00395C6E70323DAE74FF0A042EBE736
:1035A000284601F061FA064B9842F2D06FF00B000A
:1035B000A9E76FF01500A6E751F82330FFDE00BF42
:1035C0000000AD0B000300500400AD0B10B501F07E
:1035D0003BFA044668B901F00FFA084B98420AD149
:1035E0000748214601F0EAF9224605210620FEF7A8
:1035F000FFFA002010BD6FF00400FBE70000AD0BE8
:1036000005360000420970B5034602D0012A17D0E2
:1036100070BD0D4E326951680029F9D003F01F03C7
:1036200001250C689D400029F2D08A682A4002D00A
:103630004B68304698472CB1236821461C46F2E778
:10364000024EE7E72346F8E7ACB7000098B7000062
:103650002DE9FF4147683B7B01F01F0545EA431513
:103660000E4628460DF10701144601F0ADF914F499
:10367000403F80460DD1284601F070FA3D4B9845F9
:1036800003D19DF8070001F0E9F9002004B0BDE87E
:10369000F0810023194602AA2846CDE9023301F041
:1036A00053F8344B984214D1804503D19DF807005C
:1036B00001F0D4F9A3034ED540F206332340B3F50D
:1036C000837F1AD00DD8062B18D005D8B3B1022BA2
:1036D00033D06FF01500D9E7B3F5807FF9D101231E
:1036E0000CE040F20222934229D0B3F5407F28D06B
:1036F000B3F5007FEDD1022300E007238DF80830F9
:1037000084F48033C3F30043E0068DF8093054BFDE
:10371000C4F34013032321038DF80A3013D57A68CC
:103720000123B340C2F80835002202A9284601F05F
:10373000CBF8104B9842A8D0CBE70423DEE7052353
:10374000DCE70323DAE7620341BF01237A68B34071
:10375000C2F80C35E8E7E3064FF0000354BFC4F3AA
:10376000401403241A4602A928468DF8084000F0A8
:10377000EBFFDEE70000AD0B036803F01F025B09FF
:10378000026004D0012B034818BF002070474FF09F
:10379000A0407047000300502DE9F04FDFF85C9126
:1037A00085B01546824600EB81014FF00108514576
:1037B00003D1002005B0BDE8F08FDAF8003003F047
:1037C0007F04C3F343277F2C4FEA134308BF4FF016
:1037D000FF34222B00F28F80DFE803F01219213B27
:1037E00024353B8D8D8D8D3E6A8D8D8D8D8D8D8D8E
:1037F0008D8D8D8D8D8D8D8D8D6D7376797C7F000A
:10380000C5F80C45621C6BD10AF1040ACFE7C5F874
:103810001445631CF8D000264FF0000B25E0C5F8D6
:103820000845EFE7631CC5F80845EDD0002603A85E
:103830000394FFF7A1FF039B08FA03F3C0F80C35CC
:103840004FF0010B11E0661CC5F80C45DCD00126D9
:10385000EDE7C5F81045DCE7C5F80845002FD8D1DD
:10386000601CD1D00026B3460627DAF80030019359
:1038700003F40052002A03A81CBF01264FF0000BDE
:103880000394FFF779FF039A019B00EB8200C3F3D7
:10389000C114D0F800273B0243EA840343EA0B0338
:1038A00002EA0902134343EA4603C0F80037ABE7D4
:1038B000C5F80C45D2E7C5F82445621CA4D0012602
:1038C000AAE7C5F828459DE7C5F83045F5E7C5F8EE
:1038D0003445F2E7C5F83845EFE7C5F83C45ECE775
:1038E00003A80394FFF748FF039B08FA03F3C0F80B
:1038F00008350126A4E76FF085005BE7F0F8FCFFD0
:10390000054BD3F81C312BB9044B1878003818BF7D
:10391000012070470120704700200040CC25002086
:10392000074BD3F8082142B10020C3F80801D3F8AF
:103930000821D3F818350B7070474FF0FF307047EF
:1039400000200040024BD3F88004C3F88004704785
:103950000020004070B50023084C1E46D8B28242B9
:1039600003DDD4F80851013305B970BDC4F808610E
:10397000D4F80851D4F818550D54EFE70020004052
:103980000E4B00221A700E4B01229A608022C3F85F
:1039900004234FF02002EFF3118382F31288BFF368
:1039A0006F8F084A12781AB1074A0421C2F8001131
:1039B00083F31188BFF36F8F704700BFCB250020C2
:1039C00000200040CC25002000E100E0014B012256
:1039D0001A707047CB250020024B0422C3F8042341
:1039E000704700BF00200040024B0422C3F80823A8
:1039F000704700BF0020004008B5074BD3F8040310
:103A000010F0800004D0054B1B7813B9FFF778FF46
:103A100008BD0020FCE700BF00200040CB250020AF
:103A2000034BD3F80801003818BF0120704700BFCE
:103A300000200040024B4FF40072C3F8042370478B
:103A400000200040024B4FF40072C3F80823704777
:103A50000020004008B50B4AD2F804331B0605D4F9
:103A6000D2F8040310F0040006D108BDFFF7C4FF2C
:103A70000028F5D00120F8E7D2F80801003818BF77
:103A80000120F2E700200040024B1960024B1A604F
:103A9000704700BF4C180020481800200E4A0F4BFA
:103AA000117851B1D3F81C1139B18021C3F8081332
:103AB0000121D960002313707047D3F8242122B16B
:103AC0000022C3F82421D3F82431054B1B6813B11D
:103AD000044A116818477047CB2500200020004099
:103AE0004C1800204818002030B54B79012B22D00B
:103AF000032B1DD110258B79032B19D1CB79BBB9A1
:103B00000A7912B1022A13D10E220B68B3F5164FAF
:103B100061D02DD8B3F5165F5FD016D8B3F5966F88
:103B20005DD00AD8B3F5967F5CD0B3F5167F5CD034
:103B30006FF085004EE00025DDE7B3F5166F57D036
:103B4000B3F5965FF4D1344B39E0B3F5E14F52D081
:103B500007D8B3F5615F50D0B3F5964FE8D12F4B3E
:103B60002DE047F61224A342E2D14FF4000326E0F1
:103B7000B3F5613F44D011D8B3F5963F42D008D891
:103B80004DF6C024A3423FD0B3F5614FD0D1244BB2
:103B900015E0B3F5E13FCBD1224B10E0B3F5612F37
:103BA00035D007D8204CA34233D0B3F5E12FBFD195
:103BB0001E4B04E01E4CA342BAD14FF0805304695F
:103BC0001C482A43C0F82435C0F86C2503C984E892
:103BD0000300002030BD184BF1E7184BEFE74FF41E
:103BE0009E23ECE74FF4A033E9E74FF41C33E6E7FC
:103BF0004FF41D23E3E7124BE1E74FF46C13DEE7CC
:103C0000104BDCE7104BDAE74FF46503D7E70F4BB7
:103C1000D5E74FF08063D2E700B0130000A04E005C
:103C200000F0EB0000E0D70190D0030000705F07C8
:103C300040420F000020004000509D00005027002F
:103C400000F0750000B0AF0300903A0100D0BE0E46
:103C5000F8B50E4607F002FA1B4D90BB642401270D
:103C6000BFF35B8F55E8003F002B03D145E800729E
:103C7000002AF7D1BFF35B8F07D021200021013C40
:103C800003F02AF814F0FF04EAD1104B0022C3F825
:103C90001C21D3F81C110E490A7001229A604FF4BE
:103CA0007A74C3F81C65FFF72BFE20B9012007F0DA
:103CB00015F8013CF7D1054B0122DA6000232B6097
:103CC000F8BD01232B60E0E74418002000200040ED
:103CD000CC2500202DE9F341194D4368D0F8108020
:103CE0000021C5F800151F68064601AA384606F0EF
:103CF000B8FF041E1FDB019B3A6819791868FFF7AB
:103D00004BFD041E17DB41463046FFF7EDFE04462F
:103D100088B90423C5F80035C5F80801D5F808317D
:103D2000084B01212960024602201970FDF760FF4F
:103D30000220FDF72DFF204602B0BDE8F08100BF54
:103D400000200040CC2500202DE9F04100240C4E3D
:103D5000DFF830802746E5B2AA4203DDFFF7D0FD49
:103D6000013410B92846BDE8F081C6F81C71D6F8B8
:103D70001C314B5D88F80070C6F81C35EBE700BFBE
:103D800000200040CC25002070B5012383400E4A5E
:103D9000BFF35B8FDC4352E8001F01EA040542E8F1
:103DA0000056002EF7D1BFF35B8F4FF48032824074
:103DB0000648C0F80823BFF35F8FBFF36F8F0B4235
:103DC00014BF0120002070BD5418002000100140D5
:103DD00070B40E49D1E90034D01AC31844F100047C
:103DE00022F07F46C1E90034A6F50013B3F5400F79
:103DF00009D2074B1B681A0A1B069C19054B42F196
:103E00000005C3E9004570BC03F0E8B828060020AF
:103E1000581800203006002011B3BFF35B8F012338
:103E2000104A834052E800CF4CEA030C42E800C13C
:103E30000029F7D1BFF35B8F0B4A4FF480338340E7
:103E4000C2F80433094BBFF35B8F1B68BFF35B8F72
:103E5000C340DB0742BF064B4FF40032C3F80021DA
:103E6000704700BF54180020001001405018002077
:103E700000E100E00D4B1868010A0006BFF35F8FF8
:103E80000B4BD3F80435181841F10001B3F5801F2E
:103E90000AD2084BD3E90023904271EB030303D20B
:103EA00010F1807041F10001704700BF58180020E8
:103EB00000100140300600202DE9F04F85B0164675
:103EC0001F469DF840A00446FFF75EFF0190FFF7F4
:103ED000D1FFB04271EB070354D23E4B301A67EB6F
:103EE0000101984271F100014FD23B4B03EB0413E7
:103EF000D3E902239F4208BF96425ED037494FF470
:103F0000803804F1500508FA04F8AD00C1F8488380
:103F10002046ADB206F0C2FE26F07F4B05F180458B
:103F200004F5A87305F58835DC464FF003090293C4
:103F3000029A2CF07F4341F82230C1F84483D1F833
:103F40000435274A6FF00200C01A604420F07F4019
:103F5000904232D9286868B1D1F804350393A3EBB5
:103F60000B0020F07F40B0F5000F26D9204606F068
:103F700095FE039BBAF1000F07D109EB030C09F181
:103F80000109D5E7BAF1000F09D06FF015052046F9
:103F90000199FFF741FF284605B0BDE8F08F0123E6
:103FA000104ABFF35B8FA34052E8000F184342E86A
:103FB00000010029F8D1BFF35B8F07490E98230158
:103FC00001EB0412C8500F9B5360C2E90267002541
:103FD000DDE700BF0100800018060020001001404E
:103FE000FDFF7F00501800207FB51C4C1C4BC4F80F
:103FF0000833C4F848331B4B00254FF0FF304FF017
:10400000FF31C4F80855C3E902014FF48033C4F806
:104010000433154B02264FF400320121C4F8046327
:104020001120C3F880212A46FDF7E2FD1120FDF79B
:10403000AFFD0E4A0123A360236013600C4B0D4AB1
:104040000093CDE9015500232846FFF735FF3046A0
:10405000FFF74EF8284604B070BD00BF00100140C5
:1040600003000F001806002000E100E054180020B3
:10407000D13D0000FFFF7F002DE9F7432F4CD4F81E
:10408000043399070BD5D4F8043143B12C4A0023EB
:10409000C4F80431D4F80431136801331360D4F840
:1040A0000433DA032AD5BFF35B8F264B53E8002F86
:1040B00022F0010143E800100028F7D1BFF35B8F25
:1040C000D30702D4D4F84031C3B10025C4F840511D
:1040D000D4F84031FFF7CEFE4FF02003EFF311820A
:1040E00083F31288BFF36F8F174BD3E90267B04297
:1040F000B94106D282F31188BFF36F8F03B0BDE8D8
:10410000F0834FF0FF384FF0FF39C3E90289D3E95C
:1041100000101D604FF48033C4F84833C4F8405198
:10412000D4F8403182F31188BFF36F8F0029E5D0B6
:10413000009032463B4628468847DFE700100140A2
:104140005818002050180020180600201FB5431CE6
:1041500023D0012823DD134A134B9042D4BF0446D9
:104160001C46FFF787FE114B0F49D3E90023801A45
:10417000B0F5000F28BF002404448C4228BF0C4631
:10418000A2180B4900914FF00000CDE9010043F166
:104190000003FFF791FE04B010BD034CE1E70124DA
:1041A000DFE700BFFEFF7F00FFFF7F002806002043
:1041B000D13D000008B5FFF75DFE024B1B68C01A39
:1041C00008BD00BF2806002010B5084C012363601D
:1041D0001120FDF7EBFC064BC4F80833C4F8483354
:1041E000044B4FF40032C3F8802110BD0010014091
:1041F00003000F0000E100E04FF08053D3F83021BE
:10420000082A06D1D3F83431052B02D8024AD05CF3
:1042100070470020704700BFB0C00000024AD2F8CB
:104220000034002BFBD0704700E0014010B54FF088
:104230008053D3F83021082A4ED14FF0804200211C
:10424000C2F80C11C2F81011C2F8381502F540423C
:10425000D3F80414C2F82015D3F80814C2F82415B2
:10426000D3F80C14C2F82815D3F81014C2F82C1582
:10427000D3F81414C2F83015D3F81814C2F8341552
:10428000D3F81C14C2F84015D3F82014C2F8441512
:10429000D3F82414C2F84815D3F82814C2F84C15E2
:1042A000D3F82C14C2F85015D3F83014C2F85415B2
:1042B000D3F83414C2F86015D3F83814C2F8641572
:1042C000D3F83C14C2F86815D3F84014C2F86C1542
:1042D000D3F84434C2F87035FFF78EFF18B13A4B6B
:1042E0003A4AC3F88C26FFF787FF18B1384BFB22F8
:1042F000C3F81825FFF780FF70B14FF080414FF0F1
:104300008053D1F8E42ED3F8583222F00F0203F094
:104310000F031343C1F8E43EFFF76EFF20B12D4BAE
:104320004FF40072C3F840264FF08053D3F8303179
:10433000082B1AD14FF08043D3F80024D20744BF92
:104340006FF00102C3F800244FF08053D3F83431EA
:10435000052B02D8204AD35C3BB14FF01023D3F891
:1043600008224FF08043C3F858254FF01023D3F8AC
:104370000022002A03DBD3F80432002B22DA17498B
:1043800001234FF01020C1F804351224FFF746FF37
:10439000C0F80042FFF742FFC0F80442FFF73EFFBB
:1043A0000023C1F80435FFF739FFBFF34F8F0C49E5
:1043B0000C4BCA6802F4E0621343CB60BFF34F8F2B
:1043C00000BFFDE710BD00BF005000404881030062
:1043D00000F0004000900240AAC0000000E0014050
:1043E00000ED00E00400FA0530B50468CCB1BFF37D
:1043F0005B8FB4FA84F3C3F11F03DBB201229A404E
:1044000024EA020250E8005FA54204D140E8002CF3
:10441000BCF1000FF6D1BFF35B8FE6D102480B7001
:1044200030BD0248FCE700BF0000AD0B0200AD0B41
:1044300010B50368CB40DB0714D401238B4002681E
:10444000BFF35B8F43EA020150E8004F944204D16E
:1044500040E8001CBCF1000FF6D1BFF35B8FEED13A
:10446000014810BD0148FCE70000AD0B0400AD0B96
:10447000F7B5044618B1012823D003B0F0BD4FF0C2
:1044800080430222C3F80823C3F80401D3F80421AF
:104490000122DA60064601238DF8073042F21075DA
:1044A0004FF08047D4B1012CE7D1D7F80C3403F496
:1044B0008033AEBB83B3012006F010FC013DF4D184
:1044C0002AE04FF080430022C3F80803C3F800211C
:1044D000D3F8002158600DF10706DCE7D7F818344F
:1044E00003F480333EB9002BC7D0012006F0F6FB61
:1044F000013DF3D1C1E7D7F8182402F0030232607E
:10450000002BBAD09DF80700012803D106F0E6FB86
:10451000013DC7D1012CB0D1054B00225A71ACE747
:10452000D7F80C2402F001023270002BEAD1F3E735
:104530005C180020044B1A7922B9012218609A8075
:1045400002487047024870475C1800200000AD0B1D
:104550000C00AD0B08B50020FDF73CFB08B9FDF7DA
:1045600017FB4FF080430022C3F81825014B0122AE
:104570001A7008BDCD25002010B54FF08043D3F848
:1045800000216AB10022C3F80021D3F800210122E2
:10459000C3F80823114B587910B95A711B68984712
:1045A0004FF08043D3F8042172B10022C3F80421F4
:1045B000D3F80421D3F81824D3F81824920704D18F
:1045C0000122C3F818259A6010BD0222C3F80823FF
:1045D000024BBDE810401B68012018475C18002002
:1045E000036803F01F025B09026004D0012B03483B
:1045F00018BF002070474FF0A040704700030050E4
:10460000034A430900F01F00D35C1844C0B270474E
:10461000C1C0000008B5FFF7F3FF034B083033F8C3
:104620001000C0F3401008BD4801002008B5FFF796
:10463000E7FF034B083033F81000C0F3400008BD1B
:104640004801002008B5FFF7DBFF034B083033F8C3
:104650001000400B08BD00BF4801002070B50546A2
:10466000FFF7CEFF0C4C08300E4634F81030DA0558
:1046700008D5C3F3432304EBC302284654F8333070
:1046800052689847A3682BB1E26831462846BDE8D6
:104690007040184770BD00BF4801002010B5FFF7FB
:1046A000AFFF124A083032F81030D9051CD5C3F3D9
:1046B000432123F4F85322F8103002F10E040020B5
:1046C00034F8023F13F4807F03D0C3F343239942AD
:1046D0000AD001303028F3D1002342F831300448A9
:1046E000BDE81040FFF7A4BE10BD00BF4801002088
:1046F000BC010020F0B50146104A114C00200125F4
:10470000064602F14043A3F5C2439B0805FA03F3B2
:10471000194204D0176817B116601768184304329D
:10472000A242EED1074BD3F87C2132B10022C3F86C
:104730007C21D3F87C3140F00040F0BD00610040A6
:1047400020610040006000402DE9F04385B005463F
:1047500090461E46FFF754FF044609B32846FFF76C
:1047600065FF18B12846FFF755FF38BB0023CDE998
:1047700000338DF80E308DF80F300DF10F020B461F
:1047800028460DF10E0106F0E9FA4A4A04F1080143
:1047900032F8113023F0020343F0010322F8113004
:1047A000B8F1000F31D0284698F80070D8F804907E
:1047B000FFF73CFF20B1B9F1000F1BD03E4826E0C7
:1047C0003C4B04F1080C33F81C1021F02001C90403
:1047D000C90C23F81C10B9F1000F0BD0032FEDD832
:1047E000D8F8042092F800E0A7B9344B0EF5A27E69
:1047F00043F82E702F4A04F1080132F8113023F0EB
:104800001C0343EA870322F811304EBB2C4805B045
:10481000BDE8F0834FEA8E0202F1804202F5C04209
:1048200041EA4E31D2F8100520F00300C2F810051D
:10483000D2F8100520F44F3020F44070C2F8100573
:10484000D2F81085280200F47C5040EA080040EAC3
:10485000074041F0200123F81C10C2F81005C9E7F9
:10486000D6E900762846FFF719FF002FCED0114D6C
:10487000D5E90023974201D19E4218D011480DF18D
:104880000F01FFF7B1FD0E4B9842C0D19DF80F20EC
:1048900045F8327005EBC20308345E6035F8143019
:1048A00043EA422343F4807325F81430AEE7002234
:1048B000EEE700BF480100200400AD0B006000409F
:1048C0000000AD0BBC0100202DE9FF410446164657
:1048D000FFF796FE054631B32046FFF7A7FE20B945
:1048E0002046FFF797FE002860D1314F05F10808F8
:1048F00037F8183013F01C0F02D04B78012B55D02D
:1049000001238DF80F300023CDE900134A1C8B1CC6
:1049100020460DF10F0106F021FA37F8183043F068
:10492000030327F818301EB9224804B0BDE8F0810F
:104930002046FFF77BFEC8B31D4F96F800C005F177
:104940000800614637F81050890025F0200501F174
:104950008041ED0401F5C041ED0C27F81050002313
:10496000C1F810357278002ADED0D1F81035B6784B
:1049700023F4991323F4F853C1F8103512042302D9
:10498000D1F810E502F4403203F47C5313433205AE
:1049900043EA0E0302F4801245EA4C35134345F016
:1049A000200527F81050C1F81035BDE70248BCE7D4
:1049B000480100200000AD0B0400AD0B014BC3E922
:1049C000020170474801002010B50446FFF722FE9F
:1049D00050B12046FFF714FE044B083033F8103076
:1049E00003485B0B0B7010BD0248FCE74801002038
:1049F0000000AD0B0400AD0B70B50F4C94F878605F
:104A0000BEB90E4D6022314604F1100006F020FEC2
:104A1000C5F87C610620D5F87C31FDF7B9F84FF078
:104A20000043C5F804330648012384F878306367EF
:104A300070BD0448FCE700BF480100200060004052
:104A40000000AD0B0500AD0B034B93F87800003868
:104A500018BF0120704700BF4801002001460148EF
:104A6000FFF7E6BCB801002001460148FFF7BCBCD7
:104A7000B801002037B50446FFF7CCFD08B3204647
:104A8000FFF7D4FD0546E0B92046FFF7DBFD03B292
:104A90009B0003F1804202F5C24203F1804303F51B
:104AA000C04315601268D3F8102542F00102C3F824
:104AB000102521B1144A01238340C2F8043303B006
:104AC00030BD2046FFF79CFD104B083033F8103006
:104AD000C3F38203042B12D0052B12D001A801943A
:104AE000FFF77EFD019BD0F81015D94001F00101C0
:104AF0000231204603B0BDE8304006F078B903210A
:104B0000F7E70221F5E700BF006000404801002000
:104B100010B50446FFF77EFDC0B12046FFF786FDC5
:104B2000A0B92046FFF78EFD0B4A01238340C2F84F
:104B3000083303B29B0003F1804303F5C043D3F86D
:104B4000102522F00302C3F8102510BD20460021D5
:104B5000BDE8104006F04BB90060004073B5044654
:104B6000FFF74EFD184E00F1080536F81530DB074B
:104B700027D52046FFF7CCFF2046FFF74BFD40B17D
:104B80002046FFF75FFD114B00F5A270002243F8AD
:104B900020202046FFF782FD002301A826F81530CB
:104BA0000194FFF71DFD019B00EB8300084BD0F83B
:104BB0000027134043F00203C0F80037054802B055
:104BC00070BD0548FBE700BF4801002000600040C1
:104BD000F0F8FCFF0000AD0B0400AD0B2DE9F04F29
:104BE000644BD3F80403C0B285B040F00040FFF737
:104BF00081FD051E80F2A1804FF0A043D3F820254F
:104C00000292C3F82025D3F820280392C3F8202865
:104C10000DF108084FF00009574B09EB030B4FE06B
:104C200093FAA3FA9BF80040BAFA8AFA4AEA4414C3
:104C30002046FFF7E5FC514B019408304FEADA02B9
:104C400033F810700AF007030120984018F802307A
:104C500023EA000308F8023001A8FFF7C1FC019B1A
:104C600003F5E073B90850F82330C7F38206C3F3A5
:104C7000014A4B0737462FD520463146FFF7EEFC59
:104C800001A80194FFF7ACFC019B03F5E0735FFA08
:104C90008AFA50F82330C3F301439A4507D1002123
:104CA000204606F0A4F85146204606F0A0F801A8D8
:104CB0000194FFF795FC019A01239340C0F8203539
:104CC000D8F80030002BABD108F10408B9F1000F7F
:104CD0001DD14FF001099FE7BAF1020F0CD103215A
:104CE000204606F084F806F00503012BDFD1394693
:104CF0002046FFF7B3FCDAE70221204606F077F8FA
:104D0000032EF4D0BAF1030FD1D1022EEEE74FF00B
:104D10000040FFF7EFFC4FF0A0421949D2F82035D0
:104D20000293C2F82035D1F8202503921343C1F82D
:104D300020257FF46DAF25F00045012415B905B09D
:104D4000BDE8F08F95FAA5F3B3FA83F304FA03F202
:104D50009B0003F1804303F5C04325EA0205D3F825
:104D60001005D3F81015C0F30520C1F30141FFF77A
:104D700075FCE3E700600040D1C00000480100205E
:104D80000003005010B5184C237853BB0278C2F3CF
:104D90004003920712D54FF08053D3F83021082AF0
:104DA0000BD1D3F83431052B07D8104AD35C23B18B
:104DB0004FF080430122C3F8382601234FF0804290
:104DC000C2F88035037803F00103C2F8783500207B
:104DD000FCF700FF08B9FCF7DBFE01230448237051
:104DE00010BD0448FCE700BFCE250020DFC0000056
:104DF0000000AD0B0C00AD0B4FF080434FF4607220
:104E0000C3F80823014B00221A6070476418002081
:104E100008B5FFF7F1FF03680BB1014A136008BD45
:104E20006418002010B54FF08043D3F804436207A4
:104E300007D54FF4847005F0E9FF10B11E4B1B68D5
:104E40009847A30608D54FF48A7005F0DFFF18B124
:104E50001A4B00201B689847600608D54FF48C70E9
:104E600005F0D4FF18B1154B01201B6898472106A7
:104E700008D54FF48E7005F0C9FF18B1104B002013
:104E80001B689847E20508D54FF4907005F0BEFF07
:104E900018B10B4B01201B689847A3050AD54FF4A6
:104EA000927005F0B3FF28B1054BBDE810401B68B8
:104EB0000220184710BD00BF6C18002068180020A1
:104EC000641800204FF08053D3F83021082A06D10F
:104ED000D3F83431052B04D8034AD05C7047002046
:104EE00070470120704700BFE5C00000054B10F07F
:104EF000800FA3F1900208BF134600F00F0003EBF0
:104F000000107047181A002007B5074A00231370D5
:104F1000064A137001230193054B01A81B689847AB
:104F200003B05DF804FB00BFD2250020D12500208E
:104F3000B01A002013B5194BD3F80044C3F800444D
:104F4000E105D3F8003408D5154B01221A7002236D
:104F50000193144B01A81B689847A20508D5104B74
:104F600000221A70032301930E4B01A81B68984777
:104F7000630510D50A4B1A786AB100221A70074BE4
:104F80000122C3F808259A659B6D04230193054B04
:104F900001A81B68984702B010BD00BF0070024016
:104FA000D2250020B01A00204FF02003EFF311802B
:104FB00083F31288BFF36F8F0A4BD3F8001C0322D0
:104FC00061B949F27531C3F8001CC3F8142DC3F858
:104FD000001C80F31188BFF36F8F7047C3F8142D46
:104FE000F7E700BF00E006404FF02003EFF3118029
:104FF00083F31288BFF36F8F0A4BD3F8001C61B99B
:1050000049F27532C3F8002CC3F8141DC3F8002C04
:1050100080F31188BFF36F8F70470022C3F8142DFF
:10502000F6E700BF00E00640F8B54B680B4F9A4228
:1050300028BF1A460C4615460646096840233846DE
:1050400006F00EFBC6E9007560682368401B2B4420
:1050500060602360003818BF0120F8BD7018002080
:1050600070B54B689A4228BF1A4606460D4614464C
:105070008AB140230968094806F0F2FA074BC6E9ED
:1050800000346B681B1B6B602B682344201E2B6055
:1050900018BF012070BD1346F1E700BF7018002053
:1050A00007B500238DF804300B4BD3F82025ADF85D
:1050B0000620D3F8C034094A002B136814BF4FF000
:1050C00001214FF480710B431360054B01A81B684D
:1050D000984703B05DF804FB00700240AC1A002052
:1050E000B01A0020064BBFF35B8F53E8001F01404E
:1050F00043E80012002AF8D1BFF35B8F704700BF6E
:10510000A81A00204FF08053D3F83031082B02BF8B
:10511000034B0022C3F81C2C024B00221A7070476C
:1051200000700240D025002008B5FFF7EBFF084BC8
:1051300093F89E20032A05D1BDE808406FF00100D6
:10514000FFF7D0BFD3F89030002BF5D008BD00BFDB
:105150008819002073B5012202FA01F51C491D4E81
:105160000B6810F0800F43EA050304460B6024D05F
:1051700000F00F02184B33F8123003F1804303F5AF
:105180001C331A6832B100221A6080281B6811D0C3
:1051900005F0A4FE33682B400AD106228DF80420C6
:1051A0008DF806408DF807300C4B01A81B68984716
:1051B00002B070BDFFF7B8FFECE733681D42F7D1CE
:1051C00006238DF804308DF806008DF80720EBE7F4
:1051D000AC1A0020A81A002042BE0000B01A00201D
:1051E00008B5054B1A78104605F06FFEBDE808407B
:1051F00001461046FFF7AEBFD125002007B5FFF7E7
:1052000081FF0C4B93F88E20032A10D0D3F8803006
:105210006BB96FF08070FFF765FF06238DF80430DF
:105220000823ADF80630044B01A81B68984703B06B
:105230005DF804FB88190020B01A002007B5FFF7BD
:1052400061FF104B93F81E21032A06D16FF4807082
:1052500003B05DF804EBFFF745BFD3F810316BB92D
:105260006FF48070FFF73EFF06238DF8043088232B
:10527000ADF80630044B01A81B68984703B05DF8F1
:1052800004FB00BF88190020B01A0020024A002346
:105290001360024A13707047B01A0020D325002013
:1052A00008B54E4B4FF40062C3F80024D3F8003425
:1052B000FFF708FE08B1FFF777FE4FF08053D3F8F1
:1052C0003031082B19D14FF02003EFF3118083F315
:1052D0001288BFF36F8F424BD3F8001CC022002905
:1052E00073D149F27531C3F8001CC3F8142CC3F80C
:1052F000001C80F31188BFF36F8F384B0122C3F875
:105300000025D3F80025D3F800241205FBD54FF46F
:105310000062C3F80024D3F800344FF08053D3F870
:105320003031082B18D14FF02003EFF3118083F3B5
:105330001288BFF36F8F2A4BD3F8001C002947D186
:1053400049F27532C3F8002CC3F8141CC3F8002CC2
:1053500080F31188BFF36F8FFFF7B4FD30B1FFF713
:1053600043FEFFF7AFFD08B1FFF71EFE4FF080537D
:10537000D3F83031082B194B0AD140F2E372C3F84D
:1053800000284022C3F80428BFF36F8FBFF34F8F6C
:105390008022C3F81C250122C3F83025114B40F2AE
:1053A000FF121A60104B00211960104B1970FFF7A3
:1053B000A9FE0F4B19700F4B02221A70FFF782FDE6
:1053C00050B1BDE80840FFF70FBEC3F8142C90E7BA
:1053D0000022C3F8142CBBE708BD00BF00700240D8
:1053E00000E00640AC1A0020A81A0020CF250020BB
:1053F000D1250020D32500200A4B002210B51A70B9
:10540000094A0A4B0A4C002808BF1346C4F8043363
:105410002720FCF7BDFB0123C4F80435D4F804357C
:1054200010BD00BFD22500200714C0010714E00101
:1054300000700240034B1878012894BF002001201F
:10544000704700BFD325002010B54FF02003EFF3C5
:10545000118183F31288BFF36F8F0F4B1B7803F01A
:10546000FF0093B10D4BD3F8002412F400720CD15D
:105470000124C3F82C45D3F82C45D3F80044A405E7
:1054800004D5C3F82C25D3F82C35002081F31188DE
:10549000BFF36F8F10BD00BFD22500200070024007
:1054A000F8B51C4B1C7894BB1B4A106001221A7083
:1054B00040F2FF17264664F07F0514F0080FEDB2A6
:1054C00014BF39464021284605F037FD2846FFF72E
:1054D0000DFD0134092C867306608660EBD1002433
:1054E00040F2FF17254614F0080FE6B214BF394604
:1054F0004021304605F021FD3046FFF7F7FC01342E
:10550000092C857305608560EDD10448F8BD044819
:10551000FCE700BFD3250020B01A00200000AD0B2F
:105520000500AD0B2DE9F84304464FF02003EFF3DF
:10553000118683F31288BFF36F8F10F00F0903D128
:10554000274B1B78834247D1264B274F1A683B686D
:10555000D24392B220461A4305F0B7FC4FF001083F
:1055600008FA00F812EA080F38D12046FFF7BEFC0F
:105570000C232206054603FB09F329D50A6888682F
:1055800002F06042B2F1005F00F001001DD1174A45
:10559000174C002808BF2246164803442A6007C952
:1055A00083E807006B600023AB60AB733B68124875
:1055B00043EA08033B60114B8022C3F8042186F3C1
:1055C0001188BFF36F8FBDE8F8830D4A0D4CE0E7FB
:1055D0000D4A13440D4AE1E70D48F0E70D48EEE7A8
:1055E000D1250020AC1A0020A81A0020A3AE00008C
:1055F00081AE00001C1900200000AD0B00E100E0AE
:105600006150000029500000B01800204FAE00008B
:105610000A00AD0B0B00AD0B10F0080F074B06D0C6
:10562000D3F8C00410F4803F18BF0020704700F08A
:105630000F0000F5947053F820007047007002408E
:105640002DE9F04F664E337885B0002B7CD1DFF822
:105650009481654DD8F800402B681C4074D014F03C
:10566000012314BF93FAA3F494FAA4F4B4FA84F4D3
:105670004FF0010909FA04F90F2C6FEA090966D9FC
:10568000103CE4B22046FFF731FC82462046FFF78B
:10569000C3FFDAF80070BAF80C20DAF804100346F9
:1056A000834602A8B847029B002B5CD108B9CAF810
:1056B00000004FF0805362B2D3F83031082B02BFA4
:1056C0004A4B8221C3F81C1C012333702B680399B9
:1056D00003EA09032B60DAF80830029D0B44002A24
:1056E000CAF8083004F00800404B04F00F0457DA01
:1056F00000284DD0C3F8A056C3F8A416042303EB2A
:10570000840303F1804303F51C33012119601B68F6
:105710003749384B13EA220338BF0B4633F81430AD
:1057200003F1804303F51C3319680029FCD0002ADB
:105730002E4B4ADA002842D0D3F8A8362E4A1178E8
:1057400003F001034B40137005B0BDE8F08F44F047
:1057500080042046FFF7CAFB0368828941688246BD
:1057600002A89847A2E7039B9B459FD9022748467A
:105770008AF80E70FFF7B6FC06238DF804301F4B35
:105780008DF806401B688DF8077001A8984761E7FF
:10579000142606FB0433C3F80056C3F80416ADE71D
:1057A00028B1C3F8A057C3F8A4172823A7E71426E5
:1057B00006FB0433C3F80057C3F80417F5E71422B7
:1057C00002FB0433D3F80836B8E710B1D3F8A83792
:1057D000B4E7142202FB0433D3F80837AEE700BF66
:1057E000D0250020A81A0020AC1A0020007002402A
:1057F00030BE000042BE0000CF250020B01A0020BD
:1058000038B50F4BD3F86C44C3F86C4401251CB970
:10581000BDE83840FFF714BF94FAA4F3B3FA83F35A
:105820000F2BC8BFA3F110001946D4BF43F080006E
:10583000C0B205FA03F324EA0304FFF78BFCE6E7A2
:105840000070024037B5FFF75DFC0446FFF74EFBE2
:10585000837B032B0DD1204605F037FB012303FA90
:1058600000F0C043FFF73EFC03B0BDE83040FFF757
:10587000E7BE0568002DF7D1204605F026FB012381
:1058800003FA00F0C043FFF72DFC06238DF8043027
:10589000044B8DF806401B688DF8075001A8984707
:1058A000E2E700BFB01A0020024B40F48070C3F85A
:1058B0001805704700700240020713D400F00F0370
:1058C00010F0800F084A0BBF03F5887303F584734B
:1058D00002EB830252F8230008BF5068431E58426F
:1058E000584170470020704700700240044BC3F8D5
:1058F0000C0540F48070C3F80C05D3F80C357047E4
:10590000007002400023036043600E4BD3F88024F4
:105910000270D3F884244270D3F88824D3F88C140E
:1059200042EA01224280D3F89024D3F8941442EA48
:1059300001228280D3F89824D3F89C3442EA0323CE
:10594000C380704700700240024B0122DA64DB6CB6
:10595000704700BF0070024013B5FFF7D3FB104B38
:105960009A7B032A06D16FF4803002B0BDE8104064
:10597000FFF7B8BB1C6874B96FF48030FFF7B2FB57
:1059800006238DF80430074BADF806401B6801A8CC
:10599000984702B010BD02B0BDE81040FFF7D4BF79
:1059A00088190020B01A0020024B01221A651B6DD5
:1059B000704700BF00700240024B01225A655B6DC8
:1059C000704700BF00700240014B1878704700BF5D
:1059D000D125002010B502464FF02003EFF31184CB
:1059E00083F31288BFF36F8F05F06FFA0D4901231F
:1059F00003FA00F00B6823EA00030B6012F00801C1
:105A00000AD102F00F039B0003F1804303F51C331E
:105A1000C3F8A014D3F8A03484F31188BFF36F8FB8
:105A200010BD00BFAC1A0020F7B501464FF02003AF
:105A3000EFF3118583F31288BFF36F8FFFF756FAE8
:105A40000646084605F041FA012211F0800F02FADD
:105A500000F22E4819D1036832EA03030AD008463F
:105A6000FFF7B8FF0323B37385F31188BFF36F8F7C
:105A700003B0F0BD33600368254923EA02030360E5
:105A80000B6823EA02030B60ECE70B0715D48029AF
:105A9000204B2FD001F00F0404F2DA346400C3F875
:105AA0000048D3F80448D3F80478E4B244F0020480
:105AB0003C43C3F80448D3F80438154F04683B68E6
:105AC00064EA030C1CEA020FCED0134324EA02045A
:105AD0003B600023046033600323B3738DF8073009
